{
  "contractName": "InsuranceList",
  "abi": [
    {
      "constant": false,
      "inputs": [
        {
          "internalType": "string",
          "name": "_name",
          "type": "string"
        },
        {
          "internalType": "string",
          "name": "_term1",
          "type": "string"
        },
        {
          "internalType": "uint256",
          "name": "_payout1",
          "type": "uint256"
        },
        {
          "internalType": "uint256",
          "name": "_premium",
          "type": "uint256"
        }
      ],
      "name": "requestInsurance",
      "outputs": [],
      "payable": false,
      "stateMutability": "nonpayable",
      "type": "function"
    },
    {
      "constant": true,
      "inputs": [],
      "name": "getInsuranceRequest",
      "outputs": [
        {
          "internalType": "address",
          "name": "_toBeInsured",
          "type": "address"
        },
        {
          "internalType": "string",
          "name": "_name",
          "type": "string"
        },
        {
          "internalType": "string",
          "name": "_term1",
          "type": "string"
        },
        {
          "internalType": "uint256",
          "name": "_payout1",
          "type": "uint256"
        },
        {
          "internalType": "uint256",
          "name": "_premium",
          "type": "uint256"
        }
      ],
      "payable": false,
      "stateMutability": "view",
      "type": "function"
    }
  ],
  "bytecode": "0x608060405234801561001057600080fd5b506105aa806100206000396000f3fe608060405234801561001057600080fd5b50600436106100365760003560e01c80631be312a01461003b5780639260dbb5146101a1575b600080fd5b61019f6004803603608081101561005157600080fd5b810190808035906020019064010000000081111561006e57600080fd5b82018360208201111561008057600080fd5b803590602001918460018302840111640100000000831117156100a257600080fd5b91908080601f016020809104026020016040519081016040528093929190818152602001838380828437600081840152601f19601f8201169050808301925050505050505091929192908035906020019064010000000081111561010557600080fd5b82018360208201111561011757600080fd5b8035906020019184600183028401116401000000008311171561013957600080fd5b91908080601f016020809104026020016040519081016040528093929190818152602001838380828437600081840152601f19601f82011690508083019250505050505050919291929080359060200190929190803590602001909291905050506102d1565b005b6101a9610353565b604051808673ffffffffffffffffffffffffffffffffffffffff1673ffffffffffffffffffffffffffffffffffffffff1681526020018060200180602001858152602001848152602001838103835287818151815260200191508051906020019080838360005b8381101561022b578082015181840152602081019050610210565b50505050905090810190601f1680156102585780820380516001836020036101000a031916815260200191505b50838103825286818151815260200191508051906020019080838360005b83811015610291578082015181840152602081019050610276565b50505050905090810190601f1680156102be5780820380516001836020036101000a031916815260200191505b5097505050505050505060405180910390f35b336000806101000a81548173ffffffffffffffffffffffffffffffffffffffff021916908373ffffffffffffffffffffffffffffffffffffffff16021790555083600190805190602001906103279291906104d0565b50826002908051906020019061033e9291906104d0565b50816003819055508060048190555050505050565b60006060806000806000809054906101000a900473ffffffffffffffffffffffffffffffffffffffff1660016002600354600454838054600181600116156101000203166002900480601f01602080910402602001604051908101604052809291908181526020018280546001816001161561010002031660029004801561041c5780601f106103f15761010080835404028352916020019161041c565b820191906000526020600020905b8154815290600101906020018083116103ff57829003601f168201915b50505050509350828054600181600116156101000203166002900480601f0160208091040260200160405190810160405280929190818152602001828054600181600116156101000203166002900480156104b85780601f1061048d576101008083540402835291602001916104b8565b820191906000526020600020905b81548152906001019060200180831161049b57829003601f168201915b50505050509250945094509450945094509091929394565b828054600181600116156101000203166002900490600052602060002090601f016020900481019282601f1061051157805160ff191683800117855561053f565b8280016001018555821561053f579182015b8281111561053e578251825591602001919060010190610523565b5b50905061054c9190610550565b5090565b61057291905b8082111561056e576000816000905550600101610556565b5090565b9056fea265627a7a72315820542ed71218db81b44f061ccd26a2b09ad053e22dac2d7cf1159e2e6f15e2f17b64736f6c63430005100032",
  "source": "pragma solidity ^0.5.16;\n\ncontract InsuranceList {\n  address toBeInsured;\n  string name;\n  string term1;\n  uint256 payout1;\n  uint256 premium;\n\n// request an insurance\nfunction requestInsurance(string memory _name, string  memory _term1, uint256 _payout1, uint256 _premium) public {\n  toBeInsured = msg.sender;\n  name = _name;\n  term1 = _term1;\n  payout1 = _payout1;\n  premium = _premium;\n}\n\n// get insurance request\nfunction getInsuranceRequest() public view returns (\n  address _toBeInsured,\n  string memory _name,\n  string  memory _term1,\n  uint256 _payout1,\n  uint256 _premium\n  ) {\n    return(toBeInsured, name, term1, payout1, premium);\n  }\n}\n",
  "sourcePath": "/Users/yaomin/dcInsurance/mvpBCVersion/contracts/requestForInsurance.sol",
  "compiler": {
    "name": "solc",
    "version": "0.5.16+commit.9c3226ce.Emscripten.clang"
  },
  "schemaVersion": "3.2.4",
  "updatedAt": "2020-09-13T09:15:32.875Z",
  "networkType": "ethereum",
  "devdoc": {
    "methods": {}
  },
  "userdoc": {
    "methods": {}
  }
}